{
    "_format": "hh-sol-artifact-1",
    "contractName": "CyberpunkNFT",
    "sourceName": "contracts/CyberpunkNFT.sol",
    "abi": [
        {
            "inputs": [],
            "stateMutability": "payable",
            "type": "constructor"
        },
        {
            "anonymous": false,
            "inputs": [
                {
                    "indexed": true,
                    "internalType": "address",
                    "name": "owner",
                    "type": "address"
                },
                {
                    "indexed": true,
                    "internalType": "address",
                    "name": "approved",
                    "type": "address"
                },
                {
                    "indexed": true,
                    "internalType": "uint256",
                    "name": "tokenId",
                    "type": "uint256"
                }
            ],
            "name": "Approval",
            "type": "event"
        },
        {
            "anonymous": false,
            "inputs": [
                {
                    "indexed": true,
                    "internalType": "address",
                    "name": "owner",
                    "type": "address"
                },
                {
                    "indexed": true,
                    "internalType": "address",
                    "name": "operator",
                    "type": "address"
                },
                {
                    "indexed": false,
                    "internalType": "bool",
                    "name": "approved",
                    "type": "bool"
                }
            ],
            "name": "ApprovalForAll",
            "type": "event"
        },
        {
            "anonymous": false,
            "inputs": [
                {
                    "indexed": true,
                    "internalType": "address",
                    "name": "from",
                    "type": "address"
                },
                {
                    "indexed": true,
                    "internalType": "address",
                    "name": "to",
                    "type": "address"
                },
                {
                    "indexed": true,
                    "internalType": "uint256",
                    "name": "tokenId",
                    "type": "uint256"
                }
            ],
            "name": "Transfer",
            "type": "event"
        },
        {
            "inputs": [
                {
                    "internalType": "address",
                    "name": "to",
                    "type": "address"
                },
                {
                    "internalType": "uint256",
                    "name": "tokenId",
                    "type": "uint256"
                }
            ],
            "name": "approve",
            "outputs": [],
            "stateMutability": "nonpayable",
            "type": "function"
        },
        {
            "inputs": [
                {
                    "internalType": "address",
                    "name": "owner",
                    "type": "address"
                }
            ],
            "name": "balanceOf",
            "outputs": [
                {
                    "internalType": "uint256",
                    "name": "",
                    "type": "uint256"
                }
            ],
            "stateMutability": "view",
            "type": "function"
        },
        {
            "inputs": [
                {
                    "internalType": "uint256",
                    "name": "tokenId",
                    "type": "uint256"
                }
            ],
            "name": "getApproved",
            "outputs": [
                {
                    "internalType": "address",
                    "name": "",
                    "type": "address"
                }
            ],
            "stateMutability": "view",
            "type": "function"
        },
        {
            "inputs": [
                {
                    "internalType": "address",
                    "name": "owner",
                    "type": "address"
                },
                {
                    "internalType": "address",
                    "name": "operator",
                    "type": "address"
                }
            ],
            "name": "isApprovedForAll",
            "outputs": [
                {
                    "internalType": "bool",
                    "name": "",
                    "type": "bool"
                }
            ],
            "stateMutability": "view",
            "type": "function"
        },
        {
            "inputs": [],
            "name": "maxSupply",
            "outputs": [
                {
                    "internalType": "uint256",
                    "name": "",
                    "type": "uint256"
                }
            ],
            "stateMutability": "view",
            "type": "function"
        },
        {
            "inputs": [
                {
                    "internalType": "uint256",
                    "name": "_quantity",
                    "type": "uint256"
                }
            ],
            "name": "mint",
            "outputs": [],
            "stateMutability": "payable",
            "type": "function"
        },
        {
            "inputs": [],
            "name": "mintPrice",
            "outputs": [
                {
                    "internalType": "uint256",
                    "name": "",
                    "type": "uint256"
                }
            ],
            "stateMutability": "view",
            "type": "function"
        },
        {
            "inputs": [],
            "name": "name",
            "outputs": [
                {
                    "internalType": "string",
                    "name": "",
                    "type": "string"
                }
            ],
            "stateMutability": "view",
            "type": "function"
        },
        {
            "inputs": [
                {
                    "internalType": "uint256",
                    "name": "tokenId",
                    "type": "uint256"
                }
            ],
            "name": "ownerOf",
            "outputs": [
                {
                    "internalType": "address",
                    "name": "",
                    "type": "address"
                }
            ],
            "stateMutability": "view",
            "type": "function"
        },
        {
            "inputs": [
                {
                    "internalType": "address",
                    "name": "from",
                    "type": "address"
                },
                {
                    "internalType": "address",
                    "name": "to",
                    "type": "address"
                },
                {
                    "internalType": "uint256",
                    "name": "tokenId",
                    "type": "uint256"
                }
            ],
            "name": "safeTransferFrom",
            "outputs": [],
            "stateMutability": "nonpayable",
            "type": "function"
        },
        {
            "inputs": [
                {
                    "internalType": "address",
                    "name": "from",
                    "type": "address"
                },
                {
                    "internalType": "address",
                    "name": "to",
                    "type": "address"
                },
                {
                    "internalType": "uint256",
                    "name": "tokenId",
                    "type": "uint256"
                },
                {
                    "internalType": "bytes",
                    "name": "_data",
                    "type": "bytes"
                }
            ],
            "name": "safeTransferFrom",
            "outputs": [],
            "stateMutability": "nonpayable",
            "type": "function"
        },
        {
            "inputs": [
                {
                    "internalType": "address",
                    "name": "operator",
                    "type": "address"
                },
                {
                    "internalType": "bool",
                    "name": "approved",
                    "type": "bool"
                }
            ],
            "name": "setApprovalForAll",
            "outputs": [],
            "stateMutability": "nonpayable",
            "type": "function"
        },
        {
            "inputs": [
                {
                    "internalType": "bytes4",
                    "name": "interfaceId",
                    "type": "bytes4"
                }
            ],
            "name": "supportsInterface",
            "outputs": [
                {
                    "internalType": "bool",
                    "name": "",
                    "type": "bool"
                }
            ],
            "stateMutability": "view",
            "type": "function"
        },
        {
            "inputs": [],
            "name": "symbol",
            "outputs": [
                {
                    "internalType": "string",
                    "name": "",
                    "type": "string"
                }
            ],
            "stateMutability": "view",
            "type": "function"
        },
        {
            "inputs": [
                {
                    "internalType": "uint256",
                    "name": "tokenId",
                    "type": "uint256"
                }
            ],
            "name": "tokenURI",
            "outputs": [
                {
                    "internalType": "string",
                    "name": "",
                    "type": "string"
                }
            ],
            "stateMutability": "view",
            "type": "function"
        },
        {
            "inputs": [],
            "name": "totalSupply",
            "outputs": [
                {
                    "internalType": "uint256",
                    "name": "",
                    "type": "uint256"
                }
            ],
            "stateMutability": "view",
            "type": "function"
        },
        {
            "inputs": [
                {
                    "internalType": "address",
                    "name": "from",
                    "type": "address"
                },
                {
                    "internalType": "address",
                    "name": "to",
                    "type": "address"
                },
                {
                    "internalType": "uint256",
                    "name": "tokenId",
                    "type": "uint256"
                }
            ],
            "name": "transferFrom",
            "outputs": [],
            "stateMutability": "nonpayable",
            "type": "function"
        }
    ],
    "bytecode": "0x60806040526040518060400160405280600981526020017f437962657270756e6b00000000000000000000000000000000000000000000008152506040518060400160405280600281526020017f4350000000000000000000000000000000000000000000000000000000000000815250816000908051906020019062000088929190620000c8565b508060019080519060200190620000a1929190620000c8565b505050655af3107a40006006819055506000600781905550612710600881905550620001dd565b828054620000d69062000178565b90600052602060002090601f016020900481019282620000fa576000855562000146565b82601f106200011557805160ff191683800117855562000146565b8280016001018555821562000146579182015b828111156200014557825182559160200191906001019062000128565b5b50905062000155919062000159565b5090565b5b80821115620001745760008160009055506001016200015a565b5090565b600060028204905060018216806200019157607f821691505b60208210811415620001a857620001a7620001ae565b5b50919050565b7f4e487b7100000000000000000000000000000000000000000000000000000000600052602260045260246000fd5b612aa480620001ed6000396000f3fe6080604052600436106100fe5760003560e01c80636817c76c11610095578063a22cb46511610064578063a22cb4651461033a578063b88d4fde14610363578063c87b56dd1461038c578063d5abeb01146103c9578063e985e9c5146103f4576100fe565b80636817c76c1461028b57806370a08231146102b657806395d89b41146102f3578063a0712d681461031e576100fe565b806318160ddd116100d157806318160ddd146101d157806323b872dd146101fc57806342842e0e146102255780636352211e1461024e576100fe565b806301ffc9a71461010357806306fdde0314610140578063081812fc1461016b578063095ea7b3146101a8575b600080fd5b34801561010f57600080fd5b5061012a60048036038101906101259190611b74565b610431565b6040516101379190611f7a565b60405180910390f35b34801561014c57600080fd5b50610155610513565b6040516101629190611f95565b60405180910390f35b34801561017757600080fd5b50610192600480360381019061018d9190611bc6565b6105a5565b60405161019f9190611f13565b60405180910390f35b3480156101b457600080fd5b506101cf60048036038101906101ca9190611b38565b61062a565b005b3480156101dd57600080fd5b506101e6610742565b6040516101f391906121b7565b60405180910390f35b34801561020857600080fd5b50610223600480360381019061021e9190611a32565b610748565b005b34801561023157600080fd5b5061024c60048036038101906102479190611a32565b6107a8565b005b34801561025a57600080fd5b5061027560048036038101906102709190611bc6565b6107c8565b6040516102829190611f13565b60405180910390f35b34801561029757600080fd5b506102a061087a565b6040516102ad91906121b7565b60405180910390f35b3480156102c257600080fd5b506102dd60048036038101906102d891906119cd565b610880565b6040516102ea91906121b7565b60405180910390f35b3480156102ff57600080fd5b50610308610938565b6040516103159190611f95565b60405180910390f35b61033860048036038101906103339190611bc6565b6109ca565b005b34801561034657600080fd5b50610361600480360381019061035c9190611afc565b610ac3565b005b34801561036f57600080fd5b5061038a60048036038101906103859190611a81565b610ad9565b005b34801561039857600080fd5b506103b360048036038101906103ae9190611bc6565b610b3b565b6040516103c09190611f95565b60405180910390f35b3480156103d557600080fd5b506103de610be2565b6040516103eb91906121b7565b60405180910390f35b34801561040057600080fd5b5061041b600480360381019061041691906119f6565b610be8565b6040516104289190611f7a565b60405180910390f35b60007f80ac58cd000000000000000000000000000000000000000000000000000000007bffffffffffffffffffffffffffffffffffffffffffffffffffffffff1916827bffffffffffffffffffffffffffffffffffffffffffffffffffffffff191614806104fc57507f5b5e139f000000000000000000000000000000000000000000000000000000007bffffffffffffffffffffffffffffffffffffffffffffffffffffffff1916827bffffffffffffffffffffffffffffffffffffffffffffffffffffffff1916145b8061050c575061050b82610c7c565b5b9050919050565b60606000805461052290612436565b80601f016020809104026020016040519081016040528092919081815260200182805461054e90612436565b801561059b5780601f106105705761010080835404028352916020019161059b565b820191906000526020600020905b81548152906001019060200180831161057e57829003601f168201915b5050505050905090565b60006105b082610ce6565b6105ef576040517f08c379a00000000000000000000000000000000000000000000000000000000081526004016105e6906120f7565b60405180910390fd5b6004600083815260200190815260200160002060009054906101000a900473ffffffffffffffffffffffffffffffffffffffff169050919050565b6000610635826107c8565b90508073ffffffffffffffffffffffffffffffffffffffff168373ffffffffffffffffffffffffffffffffffffffff1614156106a6576040517f08c379a000000000000000000000000000000000000000000000000000000000815260040161069d90612157565b60405180910390fd5b8073ffffffffffffffffffffffffffffffffffffffff166106c5610d52565b73ffffffffffffffffffffffffffffffffffffffff1614806106f457506106f3816106ee610d52565b610be8565b5b610733576040517f08c379a000000000000000000000000000000000000000000000000000000000815260040161072a90612077565b60405180910390fd5b61073d8383610d5a565b505050565b60075481565b610759610753610d52565b82610e13565b610798576040517f08c379a000000000000000000000000000000000000000000000000000000000815260040161078f90612177565b60405180910390fd5b6107a3838383610ef1565b505050565b6107c383838360405180602001604052806000815250610ad9565b505050565b6000806002600084815260200190815260200160002060009054906101000a900473ffffffffffffffffffffffffffffffffffffffff169050600073ffffffffffffffffffffffffffffffffffffffff168173ffffffffffffffffffffffffffffffffffffffff161415610871576040517f08c379a0000000000000000000000000000000000000000000000000000000008152600401610868906120b7565b60405180910390fd5b80915050919050565b60065481565b60008073ffffffffffffffffffffffffffffffffffffffff168273ffffffffffffffffffffffffffffffffffffffff1614156108f1576040517f08c379a00000000000000000000000000000000000000000000000000000000081526004016108e890612097565b60405180910390fd5b600360008373ffffffffffffffffffffffffffffffffffffffff1673ffffffffffffffffffffffffffffffffffffffff168152602001908152602001600020549050919050565b60606001805461094790612436565b80601f016020809104026020016040519081016040528092919081815260200182805461097390612436565b80156109c05780601f10610995576101008083540402835291602001916109c0565b820191906000526020600020905b8154815290600101906020018083116109a357829003601f168201915b5050505050905090565b600654816109d891906122f2565b3414610a19576040517f08c379a0000000000000000000000000000000000000000000000000000000008152600401610a1090612197565b60405180910390fd5b60085481600754610a2a919061226b565b1115610a6b576040517f08c379a0000000000000000000000000000000000000000000000000000000008152600401610a6290612137565b60405180910390fd5b60005b81811015610abf5760006001600754610a87919061226b565b905060076000815480929190610a9c90612499565b9190505550610aab3382611158565b508080610ab790612499565b915050610a6e565b5050565b610ad5610ace610d52565b8383611176565b5050565b610aea610ae4610d52565b83610e13565b610b29576040517f08c379a0000000000000000000000000000000000000000000000000000000008152600401610b2090612177565b60405180910390fd5b610b35848484846112e3565b50505050565b6060610b4682610ce6565b610b85576040517f08c379a0000000000000000000000000000000000000000000000000000000008152600401610b7c90612117565b60405180910390fd5b6000610b8f61133f565b90506000815111610baf5760405180602001604052806000815250610bda565b80610bb984611356565b604051602001610bca929190611eef565b6040516020818303038152906040525b915050919050565b60085481565b6000600560008473ffffffffffffffffffffffffffffffffffffffff1673ffffffffffffffffffffffffffffffffffffffff16815260200190815260200160002060008373ffffffffffffffffffffffffffffffffffffffff1673ffffffffffffffffffffffffffffffffffffffff16815260200190815260200160002060009054906101000a900460ff16905092915050565b60007f01ffc9a7000000000000000000000000000000000000000000000000000000007bffffffffffffffffffffffffffffffffffffffffffffffffffffffff1916827bffffffffffffffffffffffffffffffffffffffffffffffffffffffff1916149050919050565b60008073ffffffffffffffffffffffffffffffffffffffff166002600084815260200190815260200160002060009054906101000a900473ffffffffffffffffffffffffffffffffffffffff1673ffffffffffffffffffffffffffffffffffffffff1614159050919050565b600033905090565b816004600083815260200190815260200160002060006101000a81548173ffffffffffffffffffffffffffffffffffffffff021916908373ffffffffffffffffffffffffffffffffffffffff160217905550808273ffffffffffffffffffffffffffffffffffffffff16610dcd836107c8565b73ffffffffffffffffffffffffffffffffffffffff167f8c5be1e5ebec7d5bd14f71427d1e84f3dd0314c0f7b2291e5b200ac8c7c3b92560405160405180910390a45050565b6000610e1e82610ce6565b610e5d576040517f08c379a0000000000000000000000000000000000000000000000000000000008152600401610e5490612057565b60405180910390fd5b6000610e68836107c8565b90508073ffffffffffffffffffffffffffffffffffffffff168473ffffffffffffffffffffffffffffffffffffffff161480610ed757508373ffffffffffffffffffffffffffffffffffffffff16610ebf846105a5565b73ffffffffffffffffffffffffffffffffffffffff16145b80610ee85750610ee78185610be8565b5b91505092915050565b8273ffffffffffffffffffffffffffffffffffffffff16610f11826107c8565b73ffffffffffffffffffffffffffffffffffffffff1614610f67576040517f08c379a0000000000000000000000000000000000000000000000000000000008152600401610f5e90611fd7565b60405180910390fd5b600073ffffffffffffffffffffffffffffffffffffffff168273ffffffffffffffffffffffffffffffffffffffff161415610fd7576040517f08c379a0000000000000000000000000000000000000000000000000000000008152600401610fce90612017565b60405180910390fd5b610fe2838383611503565b610fed600082610d5a565b6001600360008573ffffffffffffffffffffffffffffffffffffffff1673ffffffffffffffffffffffffffffffffffffffff168152602001908152602001600020600082825461103d919061234c565b925050819055506001600360008473ffffffffffffffffffffffffffffffffffffffff1673ffffffffffffffffffffffffffffffffffffffff1681526020019081526020016000206000828254611094919061226b565b92505081905550816002600083815260200190815260200160002060006101000a81548173ffffffffffffffffffffffffffffffffffffffff021916908373ffffffffffffffffffffffffffffffffffffffff160217905550808273ffffffffffffffffffffffffffffffffffffffff168473ffffffffffffffffffffffffffffffffffffffff167fddf252ad1be2c89b69c2b068fc378daa952ba7f163c4a11628f55a4df523b3ef60405160405180910390a4611153838383611508565b505050565b61117282826040518060200160405280600081525061150d565b5050565b8173ffffffffffffffffffffffffffffffffffffffff168373ffffffffffffffffffffffffffffffffffffffff1614156111e5576040517f08c379a00000000000000000000000000000000000000000000000000000000081526004016111dc90612037565b60405180910390fd5b80600560008573ffffffffffffffffffffffffffffffffffffffff1673ffffffffffffffffffffffffffffffffffffffff16815260200190815260200160002060008473ffffffffffffffffffffffffffffffffffffffff1673ffffffffffffffffffffffffffffffffffffffff16815260200190815260200160002060006101000a81548160ff0219169083151502179055508173ffffffffffffffffffffffffffffffffffffffff168373ffffffffffffffffffffffffffffffffffffffff167f17307eab39ab6107e8899845ad3d59bd9653f200f220920489ca2b5937696c31836040516112d69190611f7a565b60405180910390a3505050565b6112ee848484610ef1565b6112fa84848484611568565b611339576040517f08c379a000000000000000000000000000000000000000000000000000000000815260040161133090611fb7565b60405180910390fd5b50505050565b606060405180602001604052806000815250905090565b6060600082141561139e576040518060400160405280600181526020017f300000000000000000000000000000000000000000000000000000000000000081525090506114fe565b600082905060005b600082146113d05780806113b990612499565b915050600a826113c991906122c1565b91506113a6565b60008167ffffffffffffffff811115611412577f4e487b7100000000000000000000000000000000000000000000000000000000600052604160045260246000fd5b6040519080825280601f01601f1916602001820160405280156114445781602001600182028036833780820191505090505b5090505b600085146114f75760018261145d919061234c565b9150600a8561146c91906124e2565b6030611478919061226b565b60f81b8183815181106114b4577f4e487b7100000000000000000000000000000000000000000000000000000000600052603260045260246000fd5b60200101907effffffffffffffffffffffffffffffffffffffffffffffffffffffffffffff1916908160001a905350600a856114f091906122c1565b9450611448565b8093505050505b919050565b505050565b505050565b61151783836116ff565b6115246000848484611568565b611563576040517f08c379a000000000000000000000000000000000000000000000000000000000815260040161155a90611fb7565b60405180910390fd5b505050565b60006115898473ffffffffffffffffffffffffffffffffffffffff166118d9565b156116f2578373ffffffffffffffffffffffffffffffffffffffff1663150b7a026115b2610d52565b8786866040518563ffffffff1660e01b81526004016115d49493929190611f2e565b602060405180830381600087803b1580156115ee57600080fd5b505af192505050801561161f57506040513d601f19601f8201168201806040525081019061161c9190611b9d565b60015b6116a2573d806000811461164f576040519150601f19603f3d011682016040523d82523d6000602084013e611654565b606091505b5060008151141561169a576040517f08c379a000000000000000000000000000000000000000000000000000000000815260040161169190611fb7565b60405180910390fd5b805181602001fd5b63150b7a0260e01b7bffffffffffffffffffffffffffffffffffffffffffffffffffffffff1916817bffffffffffffffffffffffffffffffffffffffffffffffffffffffff1916149150506116f7565b600190505b949350505050565b600073ffffffffffffffffffffffffffffffffffffffff168273ffffffffffffffffffffffffffffffffffffffff16141561176f576040517f08c379a0000000000000000000000000000000000000000000000000000000008152600401611766906120d7565b60405180910390fd5b61177881610ce6565b156117b8576040517f08c379a00000000000000000000000000000000000000000000000000000000081526004016117af90611ff7565b60405180910390fd5b6117c460008383611503565b6001600360008473ffffffffffffffffffffffffffffffffffffffff1673ffffffffffffffffffffffffffffffffffffffff1681526020019081526020016000206000828254611814919061226b565b92505081905550816002600083815260200190815260200160002060006101000a81548173ffffffffffffffffffffffffffffffffffffffff021916908373ffffffffffffffffffffffffffffffffffffffff160217905550808273ffffffffffffffffffffffffffffffffffffffff16600073ffffffffffffffffffffffffffffffffffffffff167fddf252ad1be2c89b69c2b068fc378daa952ba7f163c4a11628f55a4df523b3ef60405160405180910390a46118d560008383611508565b5050565b6000808273ffffffffffffffffffffffffffffffffffffffff163b119050919050565b600061190f61190a846121f7565b6121d2565b90508281526020810184848401111561192757600080fd5b6119328482856123f4565b509392505050565b60008135905061194981612a12565b92915050565b60008135905061195e81612a29565b92915050565b60008135905061197381612a40565b92915050565b60008151905061198881612a40565b92915050565b600082601f83011261199f57600080fd5b81356119af8482602086016118fc565b91505092915050565b6000813590506119c781612a57565b92915050565b6000602082840312156119df57600080fd5b60006119ed8482850161193a565b91505092915050565b60008060408385031215611a0957600080fd5b6000611a178582860161193a565b9250506020611a288582860161193a565b9150509250929050565b600080600060608486031215611a4757600080fd5b6000611a558682870161193a565b9350506020611a668682870161193a565b9250506040611a77868287016119b8565b9150509250925092565b60008060008060808587031215611a9757600080fd5b6000611aa58782880161193a565b9450506020611ab68782880161193a565b9350506040611ac7878288016119b8565b925050606085013567ffffffffffffffff811115611ae457600080fd5b611af08782880161198e565b91505092959194509250565b60008060408385031215611b0f57600080fd5b6000611b1d8582860161193a565b9250506020611b2e8582860161194f565b9150509250929050565b60008060408385031215611b4b57600080fd5b6000611b598582860161193a565b9250506020611b6a858286016119b8565b9150509250929050565b600060208284031215611b8657600080fd5b6000611b9484828501611964565b91505092915050565b600060208284031215611baf57600080fd5b6000611bbd84828501611979565b91505092915050565b600060208284031215611bd857600080fd5b6000611be6848285016119b8565b91505092915050565b611bf881612380565b82525050565b611c0781612392565b82525050565b6000611c1882612228565b611c22818561223e565b9350611c32818560208601612403565b611c3b816125cf565b840191505092915050565b6000611c5182612233565b611c5b818561224f565b9350611c6b818560208601612403565b611c74816125cf565b840191505092915050565b6000611c8a82612233565b611c948185612260565b9350611ca4818560208601612403565b80840191505092915050565b6000611cbd60328361224f565b9150611cc8826125e0565b604082019050919050565b6000611ce060258361224f565b9150611ceb8261262f565b604082019050919050565b6000611d03601c8361224f565b9150611d0e8261267e565b602082019050919050565b6000611d2660248361224f565b9150611d31826126a7565b604082019050919050565b6000611d4960198361224f565b9150611d54826126f6565b602082019050919050565b6000611d6c602c8361224f565b9150611d778261271f565b604082019050919050565b6000611d8f60388361224f565b9150611d9a8261276e565b604082019050919050565b6000611db2602a8361224f565b9150611dbd826127bd565b604082019050919050565b6000611dd560298361224f565b9150611de08261280c565b604082019050919050565b6000611df860208361224f565b9150611e038261285b565b602082019050919050565b6000611e1b602c8361224f565b9150611e2682612884565b604082019050919050565b6000611e3e602f8361224f565b9150611e49826128d3565b604082019050919050565b6000611e61600d8361224f565b9150611e6c82612922565b602082019050919050565b6000611e8460218361224f565b9150611e8f8261294b565b604082019050919050565b6000611ea760318361224f565b9150611eb28261299a565b604082019050919050565b6000611eca60178361224f565b9150611ed5826129e9565b602082019050919050565b611ee9816123ea565b82525050565b6000611efb8285611c7f565b9150611f078284611c7f565b91508190509392505050565b6000602082019050611f286000830184611bef565b92915050565b6000608082019050611f436000830187611bef565b611f506020830186611bef565b611f5d6040830185611ee0565b8181036060830152611f6f8184611c0d565b905095945050505050565b6000602082019050611f8f6000830184611bfe565b92915050565b60006020820190508181036000830152611faf8184611c46565b905092915050565b60006020820190508181036000830152611fd081611cb0565b9050919050565b60006020820190508181036000830152611ff081611cd3565b9050919050565b6000602082019050818103600083015261201081611cf6565b9050919050565b6000602082019050818103600083015261203081611d19565b9050919050565b6000602082019050818103600083015261205081611d3c565b9050919050565b6000602082019050818103600083015261207081611d5f565b9050919050565b6000602082019050818103600083015261209081611d82565b9050919050565b600060208201905081810360008301526120b081611da5565b9050919050565b600060208201905081810360008301526120d081611dc8565b9050919050565b600060208201905081810360008301526120f081611deb565b9050919050565b6000602082019050818103600083015261211081611e0e565b9050919050565b6000602082019050818103600083015261213081611e31565b9050919050565b6000602082019050818103600083015261215081611e54565b9050919050565b6000602082019050818103600083015261217081611e77565b9050919050565b6000602082019050818103600083015261219081611e9a565b9050919050565b600060208201905081810360008301526121b081611ebd565b9050919050565b60006020820190506121cc6000830184611ee0565b92915050565b60006121dc6121ed565b90506121e88282612468565b919050565b6000604051905090565b600067ffffffffffffffff821115612212576122116125a0565b5b61221b826125cf565b9050602081019050919050565b600081519050919050565b600081519050919050565b600082825260208201905092915050565b600082825260208201905092915050565b600081905092915050565b6000612276826123ea565b9150612281836123ea565b9250827fffffffffffffffffffffffffffffffffffffffffffffffffffffffffffffffff038211156122b6576122b5612513565b5b828201905092915050565b60006122cc826123ea565b91506122d7836123ea565b9250826122e7576122e6612542565b5b828204905092915050565b60006122fd826123ea565b9150612308836123ea565b9250817fffffffffffffffffffffffffffffffffffffffffffffffffffffffffffffffff048311821515161561234157612340612513565b5b828202905092915050565b6000612357826123ea565b9150612362836123ea565b92508282101561237557612374612513565b5b828203905092915050565b600061238b826123ca565b9050919050565b60008115159050919050565b60007fffffffff0000000000000000000000000000000000000000000000000000000082169050919050565b600073ffffffffffffffffffffffffffffffffffffffff82169050919050565b6000819050919050565b82818337600083830152505050565b60005b83811015612421578082015181840152602081019050612406565b83811115612430576000848401525b50505050565b6000600282049050600182168061244e57607f821691505b6020821081141561246257612461612571565b5b50919050565b612471826125cf565b810181811067ffffffffffffffff821117156124905761248f6125a0565b5b80604052505050565b60006124a4826123ea565b91507fffffffffffffffffffffffffffffffffffffffffffffffffffffffffffffffff8214156124d7576124d6612513565b5b600182019050919050565b60006124ed826123ea565b91506124f8836123ea565b92508261250857612507612542565b5b828206905092915050565b7f4e487b7100000000000000000000000000000000000000000000000000000000600052601160045260246000fd5b7f4e487b7100000000000000000000000000000000000000000000000000000000600052601260045260246000fd5b7f4e487b7100000000000000000000000000000000000000000000000000000000600052602260045260246000fd5b7f4e487b7100000000000000000000000000000000000000000000000000000000600052604160045260246000fd5b6000601f19601f8301169050919050565b7f4552433732313a207472616e7366657220746f206e6f6e20455243373231526560008201527f63656976657220696d706c656d656e7465720000000000000000000000000000602082015250565b7f4552433732313a207472616e736665722066726f6d20696e636f72726563742060008201527f6f776e6572000000000000000000000000000000000000000000000000000000602082015250565b7f4552433732313a20746f6b656e20616c7265616479206d696e74656400000000600082015250565b7f4552433732313a207472616e7366657220746f20746865207a65726f2061646460008201527f7265737300000000000000000000000000000000000000000000000000000000602082015250565b7f4552433732313a20617070726f766520746f2063616c6c657200000000000000600082015250565b7f4552433732313a206f70657261746f7220717565727920666f72206e6f6e657860008201527f697374656e7420746f6b656e0000000000000000000000000000000000000000602082015250565b7f4552433732313a20617070726f76652063616c6c6572206973206e6f74206f7760008201527f6e6572206e6f7220617070726f76656420666f7220616c6c0000000000000000602082015250565b7f4552433732313a2062616c616e636520717565727920666f7220746865207a6560008201527f726f206164647265737300000000000000000000000000000000000000000000602082015250565b7f4552433732313a206f776e657220717565727920666f72206e6f6e657869737460008201527f656e7420746f6b656e0000000000000000000000000000000000000000000000602082015250565b7f4552433732313a206d696e7420746f20746865207a65726f2061646472657373600082015250565b7f4552433732313a20617070726f76656420717565727920666f72206e6f6e657860008201527f697374656e7420746f6b656e0000000000000000000000000000000000000000602082015250565b7f4552433732314d657461646174613a2055524920717565727920666f72206e6f60008201527f6e6578697374656e7420746f6b656e0000000000000000000000000000000000602082015250565b7f4e46547320736f6c64206f757400000000000000000000000000000000000000600082015250565b7f4552433732313a20617070726f76616c20746f2063757272656e74206f776e6560008201527f7200000000000000000000000000000000000000000000000000000000000000602082015250565b7f4552433732313a207472616e736665722063616c6c6572206973206e6f74206f60008201527f776e6572206e6f7220617070726f766564000000000000000000000000000000602082015250565b7f4d696e742076616c756520697320696e636f7272656374000000000000000000600082015250565b612a1b81612380565b8114612a2657600080fd5b50565b612a3281612392565b8114612a3d57600080fd5b50565b612a498161239e565b8114612a5457600080fd5b50565b612a60816123ea565b8114612a6b57600080fd5b5056fea2646970667358221220d8d5a4489279f3afe5b764300824cf5258878e316553cea63861da976c33e5c164736f6c63430008040033",
    "linkReferences": {},
    "deployedLinkReferences": {}
}